:04000000A3EF3DF03D
:107AB200FB7FE77F010E156E1DC016F01EC017F08A
:107AC200060E08EC3EF01200056E010E036E055024
:107AD200B809D0EC3DF0020E036E0550B809D0ECA7
:107AE2003DF01200056E010E036E0550C009D0EC88
:107AF2003DF0020E036E0550C009D0EC3DF01200BD
:107B0200818A010E036E3F0ED0EC3DF0020E036E31
:107B12003F0ED0EC3DF0000E73EC3DF01200015030
:107B22000302F3CF05F0F4CF06F001500402F35044
:107B3200062602500302F350062605C001F006C0D5
:107B420002F01200B20EF66E7A0EF76E000EF86EAA
:107B520000EE1DF010EE04F00900F5CFEEFFE55047
:107B6200E150FAE1000EF86E0001BFEF3EF0026E46
:107B72009568000E936E0204D8B48190020E02182A
:107B8200D8B481928186819400F0818800F083CFFD
:107B920001F0819801BEF9D7818081821200046EC2
:107BA2000350B8EC3DF0000E936E0304D8B48190FC
:107BB200020E0318D8B481928196819400F08188D4
:107BC20000F004C083FF000E956E00F08198818062
:107BD20081821200056E400E05600CD0010E036E0C
:107BE20005504009D0EC3DF0020E036E400ED0EC81
:107BF2003DF01200010E036E7F0ED0EC3DF0020E3E
:107C0200036E0550C00F4009D0EC3DF01200186E13
:107C1200000E1A6E000E196E11D0155019240C6E3A
:107C220016C0F6FF17C0F7FF0800F5CF0DF0185089
:107C320086EC3EF0164A172A194A1A2A16C0F6FF8F
:107C420017C0F7FF0800F5500A0AD8B41200E5D7AA
:107C5200086E400E066004D0000E0A6E010E03D0BC
:107C6200000E0A6E020E096E09C00BF0085065EC98
:107C72003DF00650EBEC3DF00B50B8EC3DF0000E41
:107C8200936E0B04D8B48190020E0B18D8B4819273
:107C92008196818400F0818800F007C083FF000E86
:107CA200956E00F08198818081821200126E12C05E
:107CB20013F0146A1CD00DC015F0166A09D015C055
:107CC20006F0000E076E135029EC3EF0154A162AF4
:107CD2000E500F6E106A15500F5C1050800A116E14
:107CE2001650800A1158D8B0EAD7134A142A0C50F9
:107CF2000F6E106A13500F5C1050800A116E1450F0
:107D0200800A1158D8A01200D6D7106EE00E0D24AA
:107D1200016E026AFF0E0222000E046E050E036E51
:107D220090EC3DF001C011F002C012F00C50050DB4
:107D3200F3CF0CF0000E146E000E136E14BE06D0BC
:107D420014501BE1050E135CD8B01200F30E11247F
:107D5200F66E7D0E1220F76E0800F5500E6E0F6A59
:107D62000CC006F00EC007F0105029EC3EF00C2AB1
:107D7200114A122A134A142AE1D71200000E836E06
:107D8200000E816E000E806E000E956E000E936ED8
:107D92009268000E0F01386F81EC3DF0070E0C6EF9
:107DA200000E0D6E7F0E0E6E000E57EC3EF0000EB2
:107DB20073EC3DF080A010D080B00CD0030E1C6E8E
:107DC200080E1B6E770EE82EFED71B2EFCD71C2E3C
:107DD200FAD700F05BEC3DF080A2ECD7070E0C6EF8
:107DE200000E0D6E7F0E0E6E000E57EC3EF0E2D7C7
:107DF20000000000000000005F0000000700070014
:107E0200147F147F143C1A3E1A3C23130864623612
:107E1200495522500005030000001C224100004188
:107E2200221C00082A1C2A0808083E0808005030B4
:107E3200000008080808080030300000201008047C
:107E4200023E5149453E00427F400042615149464F
:107E52002141454B311814127F1027454545393CC5
:107E62004A494930017109050336494949360649EB
:107E720049291E003636000000563600000008145C
:107E8200224114141414144122140800020151094D
:107E920006324979413E7E1111117E7F49494936A8
:107EA2003E414141227F4141221C7F494949417F54
:107EB200090901013E414151327F0808087F004112
:107EC2007F41002040413F017F081422417F404012
:107ED20040407F0204027F7F0408107F3E414141FF
:107EE2003E7F090909063E4151215E7F0919294653
:107EF200464949493101017F01013F4040403F1F4E
:107F02002040201F7F2018207F631408146303047D
:107F1200780403615149454300007F41410204084E
:107F2200102041417F000004020102044040404011
:107F320040000102040020545454787F48444438DD
:107F42003844444420384444487F38545454180830
:107F52007E090102081454543C7F0804047800444A
:107F62007D40002040443D00007F10284400417FB6
:107F720040007C041804787C0804047838444444A3
:107F8200387C14141408081414187C7C080404089F
:107F92004854545420043F4440203C4040207C1C20
:107FA2002040201C3C4030403C44281028440C50C7
:107FB20050503C4464544C44000836410000007F59
:107FC2000000004136080008082A1C08081C2A087C
:107FD200080800AA00080038383800000000000035
:107FE2000000000000416C7661726F204D6F726577
:0E7FF2006E6F205269626F742024200A000016
:020000040030CA
:0E000000FF021900FFA580FF0FC00FE00F40A8
:00000001FF
