:04000000DDEF3BF005
:1077BA00416A406A3F6A3E6A000EF86E0001BCEFF9
:1077CA003DF0056E010E036E0550C00974EC3CF0E5
:1077DA00020E036E0550C00974EC3CF01200056EEF
:1077EA00010E036E0550B80974EC3CF0020E036EEC
:1077FA000550B80974EC3CF01200818A010E036E40
:10780A003F0E74EC3CF0020E036E3F0E74EC3CF03B
:10781A00000EE6EC3BF01200000E026E140E016E32
:10782A0003D00106D8A0020602BE12000250F9E1F6
:10783A000104D8A01200F5D701500302F3CF05F0D6
:10784A00F4CF06F001500402F35006260250030258
:10785A00F350062605C001F006C002F012000F011F
:10786A003869000E396F000E3B6F010E926E000EE2
:10787A00936E000E956E010EC26E000EC16EA40EBE
:10788A00C06E1200000E186E070E176E0DD0010E94
:10789A000C6E420E0D6E175041EC3DF01706D8A043
:1078AA0018061506D8A0160616BE1200F0D7026EE4
:1078BA009568000E936E0204D8B48190020E0218E5
:1078CA00D8B481928186819400F0818800F083CFB8
:1078DA0001F0819801BEF9D7818081821200046E7D
:1078EA0003505CEC3CF0000E936E0304D8B4819014
:1078FA00020E0318D8B481928196819400F081888F
:10790A0000F004C083FF000E956E00F0819881801C
:10791A0081821200056E400E05600CD0010E036EC6
:10792A000550400974EC3CF0020E036E400E74ECF4
:10793A003CF01200010E036E7F0E74EC3CF0020E56
:10794A00036E0550C00F400974EC3CF01200086E3B
:10795A00400E066004D0000E0A6E010E03D0000E1F
:10796A000A6E020E096E09C00BF00850F4EC3BF0E7
:10797A0006508FEC3CF00B505CEC3CF0000E936E22
:10798A000B04D8B48190020E0B18D8B48192819658
:10799A00818400F0818800F007C083FF000E956E95
:1079AA0000F08198818081821200126E12C013F059
:1079BA00146A1CD00DC015F0166A09D015C006F05D
:1079CA00000E076E1350ACEC3CF0154A162A0E5006
:1079DA000F6E106A15500F5C1050800A116E165007
:1079EA00800A1158D8B0EAD7134A142A0C500F6EDD
:1079FA00106A13500F5C1050800A116E1450800ADE
:107A0A001158D8A01200D6D7000E066E02AE06D0C4
:107A1A00016C021ED8B0022A010E066E04AE04D012
:107A2A00036C041ED8B0042A03500410D8B418D02A
:107A3A00010E056E04D0D89003360436052A04AE2A
:107A4A00FAD70350015C04500258D8A004D003505E
:107A5A00015E0450025AD89004320332052EF1D73F
:107A6A000650D8B404D0016C021ED8B0022A01C054
:107A7A0001F002C002F01200106EE00E0D24016E39
:107A8A00026AFF0E0222000E046E050E036E21EC3E
:107A9A003CF001C011F002C012F00C50050DF3CFFA
:107AAA000CF0000E146E000E136E0B0E1124F66EFF
:107ABA007E0E1220F76E0800F5500E6E0F6A0CC08B
:107ACA0006F00EC007F01050ACEC3CF00C2A114A3C
:107ADA00122A134A142A14BEE8D7145005E1050ED7
:107AEA00135CD8B01200E1D71200000E066E04AE85
:107AFA0006D0036C041ED8B0042A010E066E02AE2C
:107B0A0006D0016C021ED8B0022A010E061A000E17
:107B1A00086E000E076E03500410D8B41CD0010E74
:107B2A00056E04D0D89003360436052A04AEFAD777
:107B3A00D890073608360350015C04500258D8A082
:107B4A0005D00350015E0450025A0780D8900432CF
:107B5A000332052EEDD70650D8B404D0076C081EA0
:107B6A00D8B0082A07C001F008C002F0120034ECAD
:107B7A003CF002EC3CF0070E0C6E000E0D6E7F0E10
:107B8A000E6E000EDAEC3CF0000EE6EC3BF0C28220
:107B9A003EC040F03FC041F0C4503D6E3C6AC35005
:107BAA003C243E6E000E3D203F6E3E50401804E1DC
:107BBA003F504118D8B409D0040E0C6E280E0D6E31
:107BCA00460E0E6E040EDAEC3CF040503E5C3F501E
:107BDA00800A3C6E4150800A3C58D8B009D0070E42
:107BEA000C6E000E0D6E140E0E6E000EDAEC3CF0EA
:107BFA003EC019F03FC01AF07FEC3EF00A0E156E37
:107C0A003EC016F03FC017F0040E0FEC3EF011EC28
:107C1A003CF0BDD7396E17AE15D015C00CF02D0E3D
:107C2A000D6E395041EC3DF0152A16C001F017C00F
:107C3A0002F0FF0E046E036821EC3CF001C016F05E
:107C4A0002C017F0000E3B6E000E3A6E1650171067
:107C5A00D8A426D0300E196E3A4A3B2A21D03A507F
:107C6A00190FD96EDA6A16C001F017C002F0000EB9
:107C7A00046E0A0E036E09EC3DF00150300FDF6E00
:107C8A003A4A3B2A16C001F017C002F0000E046EF1
:107C9A000A0E036E7AEC3DF001C016F002C017F02E
:107CAA0017BE20D01750DBE11604D8A01BD0D7D7B7
:107CBA003A06D8A03B063A50190FD96EDA6ADF5055
:107CCA00186E1850166E176A15C00CF016C00DF013
:107CDA00395041EC3DF0152A7F0E156403D0392A3C
:107CEA00000E156E3BBE12003B50E2E13A04D8A0EA
:107CFA001200DED71ABE0DD04D0E195C040E1A58AA
:107D0A00D8A007D0000E166E090E156E47EC3CF08F
:107D1A0012001ABE0DD0E90E195C030E1A58D8A02B
:107D2A0007D0000E166E080E156E47EC3CF01200D6
:107D3A001ABE0DD0850E195C030E1A58D8A007D0AA
:107D4A00000E166E070E156E47EC3CF012001ABEB6
:107D5A000DD0EF0E195C020E1A58D8A007D0000EEB
:107D6A00166E060E156E47EC3CF012001ABE0DD0C8
:107D7A00590E195C020E1A58D8A007D0000E166EBA
:107D8A00050E156E47EC3CF012001ABE0DD0C30E5C
:107D9A00195C010E1A58D8A007D0000E166E040EF0
:107DAA00156E47EC3CF012001ABE0DD02D0E195C70
:107DBA00010E1A58D8A007D0000E166E030E156EC3
:107DCA0047EC3CF012001ABE0DD01A5004E1970E8F
:107DDA00195CD8A007D0000E166E020E156E47EC7D
:107DEA003CF012001ABE12001A5003E11904D8A07E
:107DFA001200000E166E010E156E47EC3CF01200D2
:107E0A0000000000000000005F00000007000700FB
:107E1A00147F147F14242A7F2A12FE2525251A3658
:107E2A00495522500005030000001C224100004170
:107E3A00221C00082A1C2A0808083E08080050309C
:107E4A000000080808080800303000002010080464
:107E5A00023E5149453E00427F4000426151494637
:107E6A002141454B311814127F1027454545393CAD
:107E7A004A494930017109050336494949360649D3
:107E8A0049291E0036360000005636000000081444
:107E9A002241141414141441221408000201510935
:107EAA0006324979413E7E1111117EFFFFFFFFFF25
:107EBA007F494949363E414141227F4141221C7F47
:107ECA00494949417F090901013E414151327F082F
:107EDA0008087F00417F41002040413F017F08148C
:107EEA0022417F404040407F0204027F7F04081005
:107EFA007F3E4141413E7F090909063E4151215ECB
:107F0A007F09192946464949493101017F01013F43
:107F1A004040403F1F2040201F7F2018207F6314CD
:107F2A000814630304780403615149454300007F40
:107F3A004141020408102041417F0000040201026D
:107F4A000440404040400001020400205454547848
:107F5A007F484444383844444420384444487F38AD
:107F6A0054545418087E090102081454543C7F08DA
:107F7A0004047800447D40002040443D00007F1006
:107F8A00284400417F40007C041804787C080404DB
:107F9A007838444444387C14141408081414187C9F
:107FAA007C080404084854545420043F4440203CAC
:107FBA004040207C1C2040201C3C4030403C44284F
:107FCA001028440C5050503C4464544C4400083629
:107FDA00410000007F0000004136080008082A1C02
:107FEA0008081C2A08080800AA00080038383800BF
:067FFA0000000000000081
:020000040030CA
:0E000000FF021900FFA580FF0FC00FE00F40A8
:00000001FF
