:040000002BEF00F0F2
:100008002582F2BAF2A421D02250D8A40FD0242AF3
:100018000A0E2418D8A403D02468F29EF29A0A0E75
:100028002318D8B411D00A0E236E0ED02204D8A4F7
:100038000BD023062328D8A404D00A0E236EF29EE0
:10004800F29A2428D8A42468F294259211001AEF71
:1000580007F0CAD2070E0C6E000E0D6E7F0E0E6EE4
:10006800000E5DEC06F00B0E0C6E400E0D6E020ECF
:1000780024EC06F00C0E0C6E400E0D6E020E24ECF5
:1000880006F00B0E0C6E3F0E0D6E050E24EC06F0FE
:100098000A0E0C6E410E0D6E020E24EC06F00A0ECE
:1000A8000C6E410E0D6E030E24EC06F00A0E0C6E5B
:1000B800410E0D6E040E24EC06F00A0E0C6E410E75
:1000C8000D6E050E24EC06F00C0E0C6E420E0D6E35
:1000D800020E24EC06F00C0E0C6E420E0D6E030E92
:1000E80024EC06F00C0E0C6E420E0D6E040E24EC81
:1000F80006F00C0E0C6E420E0D6E050E24EC06F08A
:100108000B0E0C6E430E0D6E040E24EC06F0070E5B
:100118000C6E000E0D6E7F0E0E6E000E5DEC06F07E
:100128000B0E0C6E400E0D6E020E24EC06F00A0E3D
:100138000C6E3F0E0D6E050E24EC06F00B0E0C6EC9
:100148003D0E0D6E050E24EC06F00C0E0C6E3F0EE7
:100158000D6E050E24EC06F00B0E0C6E3E0E0D6EA9
:10016800040E24EC06F00B0E0C6E3E0E0D6E030E04
:1001780024EC06F00B0E0C6E3E0E0D6E020E24ECF7
:1001880006F00A0E0C6E430E0D6E020E24EC06F0FD
:10019800070E0C6E000E0D6E7F0E0E6E000E5DECDF
:1001A80006F00A0E0C6E400E0D6E030E24EC06F0DF
:1001B8000B0E0C6E400E0D6E030E24EC06F00C0EAA
:1001C8000C6E450E0D6E030E24EC06F00A0E0C6E36
:1001D800460E0D6E050E24EC06F00B0E0C6E3F0E4F
:1001E8000D6E050E24EC06F00C0E0C6E3F0E0D6E17
:1001F800050E24EC06F00B0E0C6E430E0D6E040E6D
:1002080024EC06F00A0E0C6E3F0E0D6E040E24EC64
:1002180006F00C0E0C6E400E0D6E040E24EC06F06B
:10022800070E0C6E000E0D6E7F0E0E6E000E5DEC4E
:1002380006F00A0E0C6E400E0D6E030E24EC06F04E
:100248000B0E0C6E400E0D6E030E24EC06F00C0E19
:100258000C6E450E0D6E030E24EC06F00C0E0C6EA3
:10026800480E0D6E040E24EC06F00C0E0C6E470EB4
:100278000D6E050E24EC06F00B0E0C6E3F0E0D6E87
:10028800050E24EC06F00A0E0C6E3F0E0D6E050EE0
:1002980024EC06F00B0E0C6E490E0D6E040E24ECC9
:1002A80006F0070E0C6E000E0D6E7F0E0E6E000E21
:1002B8005DEC06F00A0E0C6E420E0D6E030E24EC79
:1002C80006F00A0E0C6E460E0D6E040E24EC06F0B7
:1002D8000C0E0C6E410E0D6E030E24EC06F00C0E87
:1002E8000C6E480E0D6E040E24EC06F00C0E0C6E0F
:1002F800410E0D6E050E24EC06F00B0E0C6E490E29
:100308000D6E040E24EC06F0070E0C6E000E0D6E3A
:100318007F0E0E6E000E5DEC06F00A0E0C6E440E9B
:100328000D6E030E24EC06F00B0E0C6E400E0D6ED7
:10033800030E24EC06F00C0E0C6E400E0D6E030E30
:1003480024EC06F00A0E0C6E460E0D6E040E24EC1C
:1003580006F00B0E0C6E490E0D6E040E24EC06F022
:100368000C0E0C6E450E0D6E040E24EC06F00A0EF3
:100378000C6E3F0E0D6E050E24EC06F00B0E0C6E87
:100388003F0E0D6E050E24EC06F00C0E0C6E470E9B
:100398000D6E050E24EC06F0070E0C6E000E0D6EA9
:1003A8007F0E0E6E000E5DEC06F00A0E0C6E440E0B
:1003B8000D6E030E24EC06F00B0E0C6E400E0D6E47
:1003C800030E24EC06F00C0E0C6E400E0D6E030EA0
:1003D80024EC06F00A0E0C6E4A0E0D6E040E24EC88
:1003E80006F00B0E0C6E490E0D6E040E24EC06F092
:1003F8000C0E0C6E450E0D6E040E24EC06F00A0E63
:100408000C6E460E0D6E050E24EC06F00B0E0C6EEF
:100418003F0E0D6E050E24EC06F00C0E0C6E470E0A
:100428000D6E050E24EC06F0070E0C6E000E0D6E18
:100438007F0E0E6E000E5DEC06F00A0E0C6E400E7E
:100448000D6E030E24EC06F00B0E0C6E400E0D6EB6
:10045800030E24EC06F00C0E0C6E450E0D6E030E0A
:1004680024EC06F00B0E0C6E490E0D6E040E24ECF7
:1004780006F00C0E0C6E480E0D6E040E24EC06F001
:100488000C0E0C6E410E0D6E050E24EC06F0070ED8
:100498000C6E000E0D6E7F0E0E6E000E5DEC06F0FB
:1004A8000B0E0C6E400E0D6E020E24EC06F00C0EB8
:1004B8000C6E400E0D6E020E24EC06F00B0E0C6E48
:1004C8003F0E0D6E050E24EC06F00A0E0C6E410E62
:1004D8000D6E020E24EC06F00A0E0C6E410E0D6E27
:1004E800030E24EC06F00A0E0C6E410E0D6E040E7F
:1004F80024EC06F00A0E0C6E410E0D6E050E24EC6F
:1005080006F00C0E0C6E420E0D6E020E24EC06F078
:100518000C0E0C6E420E0D6E030E24EC06F00C0E43
:100528000C6E420E0D6E040E24EC06F00C0E0C6ED2
:10053800420E0D6E050E24EC06F00B0E0C6E4B0EE3
:100548000D6E040E24EC06F0070E0C6E000E0D6EF8
:100558007F0E0E6E000E5DEC06F00B0E0C6E400E5C
:100568000D6E020E24EC06F00C0E0C6E400E0D6E95
:10057800020E24EC06F00A0E0C6E410E0D6E020EF1
:1005880024EC06F00A0E0C6E410E0D6E030E24ECE0
:1005980006F00A0E0C6E410E0D6E040E24EC06F0E9
:1005A8000C0E0C6E420E0D6E020E24EC06F00C0EB4
:1005B8000C6E420E0D6E030E24EC06F00C0E0C6E43
:1005C800420E0D6E040E24EC06F00C0E0C6E420E5C
:1005D8000D6E050E24EC06F00B0E0C6E4B0E0D6E18
:1005E800040E24EC06F0120017C019F018C01AF017
:1005F8001A50000AD8A412001950000AD8B42AD5F3
:10060800010AD8B484D5030AD8B4C2D5010AD8B42B
:1006180007D6070AD8B445D6010AD8B475D6030A4E
:10062800D8B4BAD6010AD8B4FFD60F0AD8B42FD78F
:10063800010AD8A4120088D7070E0C6E000E0D6EA2
:100648007F0E0E6E000E5DEC06F0000E1A6E000EA8
:10065800196E70D2010E0C6E400E0D6E000E24EC59
:1006680006F0020E0C6E400E0D6E000E24EC06F025
:10067800010E0C6E3F0E0D6E030E24EC06F0000EFC
:100688000C6E410E0D6E000E24EC06F0000E0C6E82
:10069800410E0D6E010E24EC06F0000E0C6E410E9C
:1006A8000D6E020E24EC06F0000E0C6E410E0D6E5F
:1006B800030E24EC06F0020E0C6E420E0D6E000EB8
:1006C80024EC06F0020E0C6E420E0D6E010E24ECA8
:1006D80006F0020E0C6E420E0D6E020E24EC06F0B1
:1006E800020E0C6E420E0D6E030E24EC06F0010E87
:1006F8000C6E430E0D6E020E24EC06F0040E0C6E0A
:10070800400E0D6E000E24EC06F0030E0C6E3F0E2C
:100718000D6E030E24EC06F0040E0C6E3D0E0D6EED
:10072800030E24EC06F0050E0C6E3F0E0D6E030E44
:1007380024EC06F0040E0C6E3E0E0D6E020E24EC38
:1007480006F0040E0C6E3E0E0D6E010E24EC06F043
:10075800040E0C6E3E0E0D6E000E24EC06F0030E19
:100768000C6E430E0D6E000E24EC06F0070E0C6E98
:10077800400E0D6E000E24EC06F0080E0C6E400EB6
:100788000D6E000E24EC06F0090E0C6E450E0D6E73
:10079800000E24EC06F0070E0C6E460E0D6E020ECF
:1007A80024EC06F0080E0C6E3F0E0D6E020E24ECC3
:1007B80006F0090E0C6E3F0E0D6E020E24EC06F0CC
:1007C800080E0C6E430E0D6E010E24EC06F0070E9B
:1007D8000C6E3F0E0D6E010E24EC06F0090E0C6E29
:1007E800400E0D6E010E24EC06F00B0E0C6E400E42
:1007F8000D6E000E24EC06F00C0E0C6E400E0D6E05
:10080800000E24EC06F00D0E0C6E450E0D6E000E5B
:1008180024EC06F00D0E0C6E480E0D6E010E24EC45
:1008280006F00D0E0C6E470E0D6E020E24EC06F04F
:100838000C0E0C6E3F0E0D6E020E24EC06F00B0E25
:100848000C6E3F0E0D6E020E24EC06F00C0E0C6EB4
:10085800490E0D6E010E24EC06F00F0E0C6E420EC2
:100868000D6E000E24EC06F00F0E0C6E460E0D6E8B
:10087800010E24EC06F0110E0C6E410E0D6E000EEA
:1008880024EC06F0110E0C6E480E0D6E010E24ECD1
:1008980006F0110E0C6E410E0D6E020E24EC06F0E1
:1008A800100E0C6E490E0D6E010E24EC06F0130EA0
:1008B8000C6E440E0D6E000E24EC06F0140E0C6E39
:1008C800400E0D6E000E24EC06F0150E0C6E400E58
:1008D8000D6E000E24EC06F0130E0C6E460E0D6E17
:1008E800010E24EC06F0140E0C6E490E0D6E010E6E
:1008F80024EC06F0150E0C6E450E0D6E010E24EC60
:1009080006F0130E0C6E3F0E0D6E020E24EC06F070
:10091800140E0C6E3F0E0D6E020E24EC06F0150E32
:100928000C6E470E0D6E020E24EC06F0000E0C6ED7
:10093800440E0D6E050E24EC06F0010E0C6E400EF2
:100948000D6E050E24EC06F0020E0C6E400E0D6EB8
:10095800050E24EC06F0000E0C6E4A0E0D6E060E07
:1009680024EC06F0010E0C6E490E0D6E060E24ECFA
:1009780006F0020E0C6E450E0D6E060E24EC06F007
:10098800000E0C6E460E0D6E070E24EC06F0010EDE
:100998000C6E3F0E0D6E070E24EC06F0020E0C6E68
:1009A800470E0D6E070E24EC06F0040E0C6E400E7A
:1009B8000D6E050E24EC06F0050E0C6E400E0D6E45
:1009C800050E24EC06F0060E0C6E450E0D6E050E97
:1009D80024EC06F0050E0C6E490E0D6E060E24EC86
:1009E80006F0060E0C6E480E0D6E060E24EC06F090
:1009F800060E0C6E410E0D6E070E24EC06F0090E65
:100A08000C6E400E0D6E040E24EC06F00A0E0C6EF1
:100A1800400E0D6E040E24EC06F0090E0C6E3F0E0F
:100A28000D6E070E24EC06F0080E0C6E410E0D6ECE
:100A3800040E24EC06F0080E0C6E410E0D6E050E29
:100A480024EC06F0080E0C6E410E0D6E060E24EC1A
:100A580006F0080E0C6E410E0D6E070E24EC06F023
:100A68000A0E0C6E420E0D6E040E24EC06F00A0EF1
:100A78000C6E420E0D6E050E24EC06F00A0E0C6E7E
:100A8800420E0D6E060E24EC06F00A0E0C6E420E97
:100A98000D6E070E24EC06F0090E0C6E4B0E0D6E53
:100AA800060E24EC06F00D0E0C6E400E0D6E040EB4
:100AB80024EC06F00E0E0C6E400E0D6E040E24ECA7
:100AC80006F00C0E0C6E410E0D6E040E24EC06F0B2
:100AD8000C0E0C6E410E0D6E050E24EC06F00C0E7D
:100AE8000C6E410E0D6E060E24EC06F00E0E0C6E0A
:100AF800420E0D6E040E24EC06F00E0E0C6E420E25
:100B08000D6E050E24EC06F00E0E0C6E420E0D6EE8
:100B1800060E24EC06F00E0E0C6E420E0D6E070E3D
:100B280024EC06F00D0E0C6E4B0E0D6E060E24EC2A
:100B380006F027D019C017F01AC018F01850000A8C
:100B4800D8A41FD01750000AD8B484D5010AD8B445
:100B5800D5D5030AD8B40AD6010AD8B446D6070AA6
:100B6800D8B47BD6010AD8B4A2D6030AD8B4DED644
:100B7800010AD8B41AD70F0AD8B441D7010AD8B491
:100B880092D7194A1A2A1ABED5D71A5005E10A0E61
:100B9800195CD8B01200CED71200BAEC06F07CEC83
:100BA80007F0070E0C6E000E0D6E7F0E0E6E000E17
:100BB8005DEC06F0000E99EC07F020C021F0000E65
:100BC80080B0010E206E1EC01FF0000E80B2010E14
:100BD8001E6E1CC01DF0000E80B4010E1C6E21504C
:100BE800D8A403D02050D8A40CD01F50D8A403D028
:100BF8001E50D8A406D01D50D8A41CD01C50D8B460
:100C080019D02004D8A402D0000E06D01E04D8A4FF
:100C180002D0010E01D0030E226E2250D8B403D0A8
:100C28002204D8A403D0F28EF28A04D0030E226ED6
:100C3800F29EF29A100E1B6E040EDCEC06F0BDD785
:100C4800106EE00E0D24016E026AFF0E0222000EE5
:100C5800046E050E036E69EC07F001C011F002C0C6
:100C680012F00C50050DF3CF0CF0000E146E000EB0
:100C7800136E0B0E1124F66E7E0E1220F76E08000E
:100C8800F5500E6E0F6A0CC006F00EC007F010503B
:100C98008CEC06F00C2A114A122A134A142A14BEA4
:100CA800E8D7145005E1050E135CD8B01200E1D75F
:100CB8001200126E12C013F0146A1CD00DC015F089
:100CC800166A09D015C006F0000E076E13508CEC9A
:100CD80006F0154A162A0E500F6E106A15500F5C52
:100CE8001050800A116E1650800A1158D8B0EAD7F1
:100CF800134A142A0C500F6E106A13500F5C1050D0
:100D0800800A116E1450800A1158D8A01200D6D744
:100D1800086E400E066004D0000E0A6E010E03D065
:100D2800000E0A6E020E096E09C00BF008508BEC1B
:100D380007F00650FDEC06F00B5051EC07F0000EE2
:100D4800936E0B04D8B48190020E0B18D8B481921C
:100D58008196818400F0818800F007C083FF000E2F
:100D6800956E00F08198818081821200000E0F013B
:100D78003B6F000E396F000E386F000E836E000E49
:100D8800816E000E806E000E956E000E936E070E3B
:100D9800926EF29EF294F28AF1840B0ED76EDC0EFC
:100DA800D66ED58ED59CD59AD596F80ED516120046
:100DB8002250D8A409D02428D8B4120024C017F08F
:100DC800186A2DEC00F012002204D8A40AD00A0EEA
:100DD8002318D8B4120023C017F0186A2DEC00F0BD
:100DE8001200030E2218D8A41200226820EC03F087
:100DF8001200056E400E05600CD0010E036E055002
:100E0800400936EC07F0020E036E400E36EC07F090
:100E18001200010E036E7F0E36EC07F0020E036E11
:100E28000550C00F400936EC07F012004E0EF66E62
:100E38000F0EF76E000EF86E0900F5CF22F00900CC
:100E4800F5CF23F00900F5CF24F0216A206A1F6A44
:100E58001E6A1D6A1C6A25902592000EF86E000114
:100E6800D1EF05F0046E035051EC07F0000E936EBD
:100E78000304D8B48190020E0318D8B481928196E5
:100E8800819400F0818800F004C083FF000E956E05
:100E980000F08198818081821200026E9568000EB0
:100EA800936E0204D8B48190020E0218D8B48192CD
:100EB8008186819400F0818800F083CF01F08198C9
:100EC80001BEF9D781808182120001500302F3CF5D
:100ED80005F0F4CF06F001500402F3500626025044
:100EE8000302F350062605C001F006C002F0120006
:100EF800818A010E036E3F0E36EC07F0020E036E78
:100F08003F0E36EC07F0000E99EC07F01200056E64
:100F1800010E036E0550B80936EC07F0020E036E99
:100F28000550B80936EC07F01200056E010E036E85
:100F38000550C00936EC07F0020E036E0550C009D3
:090F480036EC07F01200FF0AFF6D
:107E0A0000000000000000005F00000007000700FB
:107E1A00147F147F14242A7F2A12FE2525251A3658
:107E2A00495522500005030000001C224100004170
:107E3A00221C00082A1C2A0808083E08080050309C
:107E4A000000080808080800303000002010080464
:107E5A00023E5149453E00427F4000426151494637
:107E6A002141454B311814127F1027454545393CAD
:107E7A004A494930017109050336494949360649D3
:107E8A0049291E0036360000005636000000081444
:107E9A002241F0FFFFFFF000FFFFFF00F0F0F0F0DB
:107EAA00F00F0F0F0F0F0000FFFFFFFFFFFF000093
:107EBA00F0381C0E07FFFFFF07070707FFFFFFFF4A
:107ECA00FFFFE0E0E0E0FFFFFF3838FFFFFF383850
:107EDA00383838FFFFFF383807070707073E4141A0
:107EEA0051327F0808087F00417F41002040413F0E
:107EFA00017F081422417F404040407F0204027FF4
:107F0A007F0408107F3E4141413E7F090909063E30
:107F1A004151215E7F0919294646494949310101E2
:107F2A007F01013F4040403F1F2040201F7F201813
:107F3A00207F6314081463030478040361514945DC
:107F4A004300007F4141020408102041417F0000A4
:107F5A0004020102044040404040000102040020A3
:107F6A00545454787F48444438384444442038446C
:107F7A0044487F3854545418087E0901020814549E
:107F8A00543C7F0804047800447D40002040443D6E
:107F9A0000007F10284400417F40007C04180478C8
:107FAA007C0804047838444444387C1414140808BF
:107FBA001414187C7C080404084854545420043FC0
:107FCA004440203C4040207C1C2040201C3C403047
:107FDA00403C44281028440C5050503C00000000FB
:107FEA000000000000000000000000000000000087
:067FFA0000000000000081
:020000040030CA
:0E000000FF021900FFA580FF0FC00FE00F40A8
:00000001FF
