:0400000043EF00F0DA
:100008003D82FACF01F0FBCF02F0E9CF03F0EACF4F
:1000180004F0E1CF05F0E2CF06F0D9CF07F0DACF50
:1000280008F0F3CF09F0F4CF0AF0F6CF0BF0F7CFD2
:100038000CF0F8CF0DF0F5CF0EF09EB89DA801D0CA
:100048009E980EC0F5FF0DC0F8FF0CC0F7FF0BC05F
:10005800F6FF0AC0F4FF09C0F3FF08C0DAFF07C0C3
:10006800D9FF06C0E2FF05C0E1FF04C0EAFF03C0F4
:10007800E9FF02C0FBFF01C0FAFF3D921100EEEF5D
:1000880002F091EC02F0D6EC03F0070E1A6E000EA7
:100098001B6E7F0E1C6E000E62EC02F0000EF3EC7D
:1000A80003F0000E236E3BC024F03CC025F0000E88
:1000B800AEEC01F0000E236E37C024F038C025F0F6
:1000C800020EAEEC01F0000E236E39C024F03AC0E7
:1000D80025F0030EAEEC01F0000E236E37C024F0BD
:1000E80038C025F0050EAEEC01F031C035F032C055
:1000F80036F02FC033F030C034F0000E326E000EF0
:10010800316E000E306E000E2F6EC282C2B2FED764
:10011800C3503126000E3222C4A002D0010E32266E
:10012800C4A202D0020E32263550311804E13650EE
:100138003218D8B409D0010E1A6E000E1B6E7F0E4D
:100148001C6E010E62EC02F0600E1B6E000E1C6E3F
:10015800FC0E1D6E7F0E1E6E31C01FF032C020F0E7
:100168000AEC01F0000E236E600E246E000E256E60
:10017800010EAEEC01F00D0EC26EC282C2B2FED705
:10018800C3502F26000E3022C4A002D0010E302604
:10019800C4A202D0020E302633502F1804E1345086
:1001A8003018D8B409D0040E1A6E000E1B6E7F0EDC
:1001B8001C6E040E62EC02F0600E1B6E000E1C6ECC
:1001C800FC0E1D6E7F0E1E6E2FC01FF030C020F07B
:1001D8000AEC01F0000E236E600E246E000E256EF0
:1001E800040EAEEC01F0010EC26E31C02BF032C02D
:1001F8002CF02FC02DF030C02EF02FEC02F0000EA6
:10020800106E010E116EC4EC03F06FD71F0E246E32
:10021800000E256E8CD0250E2A18D8B409D01BC024
:10022800D9FF1CC0DAFF2AC0DFFF1B4A1C2A7FD077
:10023800000E266E1DC0F6FF1EC0F7FF1D4A1E2ABF
:100248000800F5CF2AF02A50000AD8B47CD0640AF6
:10025800D8B403D00D0AD8A46AD024C0D9FF25C0C9
:10026800DAFFDECF28F0DDCF29F0020E2426000EBB
:10027800252229AE06D0030E2612286C291ED8B0D6
:10028800292A010E2A6E050E2A18D8B412D02A502F
:10029800020DD50EF324F66E7F0EF420F76E0900DA
:1002A800F550285C0900F5502958D8A002D02A2A10
:1002B800EAD726C023F0030E2316D8B408D01BC0F3
:1002C800D9FF1CC0DAFF2D0EDF6E1B4A1C2A2AC07C
:1002D80027F029D02750020DD50EF324F66E7F0E95
:1002E800F420F76E0900F5CF11F00A00F5CF12F0EF
:1002F80028C00FF029C010F017EC03F00FC016F05B
:1003080010C017F0000E196E0A0E186E40EC03F0BC
:100318001650300F2A6E1BC0D9FF1CC0DAFF2AC046
:10032800DFFF1B4A1C2A27062728D8A4D3D71DC0BD
:10033800F6FF1EC0F7FF1D4A1E2A0800F5CF2AF057
:100348002A50D8A468D71BC0D9FF1CC0DAFF000EFA
:10035800DF6E1200266E000E286E000E276E1BD070
:10036800235027241A6E24C0F6FF25C0F7FFF86A29
:10037800050EF76403D00800F55005D0F6CFE9FF65
:10038800F7CFEAFFEF501B6E2650F6EC01F0244A37
:10039800252A274A282A24C0F6FF25C0F7FFF86A2D
:1003A800050EF76403D00800F55005D0F6CFE9FF35
:1003B800F7CFEAFFEF500A0AD8B4120024C0F6FFBC
:1003C80025C0F7FFF86A050EF76403D00800F5505A
:1003D80005D0F6CFE9FFF7CFEAFFEF500009D8B410
:1003E8001200BED71E6EE00E1B240F6E106AFF0EA1
:1003F8001022000E126E050E116EB1EC03F00FC044
:100408001FF010C020F01A50050DF3CF1AF0000E9F
:10041800226E000E216E22BE06D022501BE1050E70
:10042800215CD8B01200E10E1F24F66E7D0E20204C
:10043800F76E0800F5501C6E1D6A1AC014F01CC037
:1004480015F01E50C0EC02F01A2A1F4A202A214A31
:10045800222AE1D71200315035180BE132503618F4
:10046800D8A407D02F50331804E130503418D8B42A
:1004780009D0060E1A6E000E1B6E7F0E1C6E060E3D
:1004880062EC02F0000E1B6E010E1C6EDF0E1D6E7C
:100498007F0E1E6E2BC01FF02CC020F02DC021F047
:1004A8002EC022F00AEC01F0000E236E000E246E1E
:1004B800010E256E060EAEEC01F01200206E20C073
:1004C80021F0226A1CD01BC023F0246A09D023C063
:1004D80014F0000E156E2150C0EC02F0234A242AB5
:1004E8001C501D6E1E6A23501D5C1E50800A1F6E14
:1004F8002450800A1F58D8B0EAD7214A222A1A5015
:100508001D6E1E6A21501D5C1E50800A1F6E2250EF
:10051800800A1F58D8A01200D6D70F013869000EDC
:100528000F01396F000E0F013A6F000E0F013B6F7C
:10053800090E926E000E936EC00E946E000E956EAC
:10054800000E816E000E836EF30ED76ECA0ED66E45
:10055800010EC26EA10EC06E030EAF6EB886AC84DB
:10056800240EAC6E900EAB6E800ED06EC00EF26E86
:100578009D989E989F881200166E400E146004D0B5
:10058800000E186E010E03D0000E186E020E176EC4
:1005980017C019F01650E5EC03F0145061EC03F0A5
:1005A800195099EC03F0000E936E1904D8B4819099
:1005B800020E1918D8B481928196818400F081883E
:1005C80000F015C083FF000E956E00F081988180C1
:1005D800818212000E0EF66E080EF76E000EF86E8F
:1005E80000EE37F010EE06F00900F5CFEEFFE5500B
:1005F800E150FAE101EE00F0800EEE6AE806FDE156
:1006080000EE60F0800EEE6AE806FDE100EE2FF0E5
:10061800080EEE6AE806FDE13D903D92000EF86E88
:10062800000145EF00F0000E146E000E136E11501D
:100638001210D8B41CD0010E156E04D0D890113603
:100648001236152A12AEFAD7D8901336143611502E
:100658000F5C12501058D8A005D011500F5E1250E0
:10066800105A1380D89012321132152EEDD713C0BC
:100678000FF014C010F0120018501910D8B418D088
:10068800010E1A6E04D0D890183619361A2A19AEE7
:10069800FAD71850165C19501758D8A004D018501B
:1006A800165E1950175AD890193218321A2EF1D7E7
:1006B80016C016F017C017F01200136E400E136024
:1006C8000CD0010E116E135040097EEC03F0020E9F
:1006D800116E400E7EEC03F01200010E116E7F0EBB
:1006E8007EEC03F0020E116E1350C00F40097EEC31
:1006F80003F01200126E115099EC03F0000E936E85
:100708001104D8B48190020E1118D8B48192819640
:10071800819400F0818800F012C083FF000E956E6E
:1007280000F08198818081821200106E9568000E19
:10073800936E1004D8B48190020E1018D8B4819228
:100748008186819400F0818800F083CF0FF0819832
:100758000FBEF9D78180818212000F501102F3CFAA
:1007680013F0F4CF14F00F501202F3501426105067
:100778001102F350142613C00FF014C010F0120029
:1007880009D010C0D9FF11C0DAFFDF5001EC04F026
:10079800104A112A10C0D9FF11C0DAFFDF50D8B4AF
:1007A8001200EFD7818A010E116E3F0E7EEC03F026
:1007B800020E116E3F0E7EEC03F0000EF3EC03F018
:1007C8001200136E010E116E1350B8097EEC03F07F
:1007D800020E116E1350B8097EEC03F01200136E6E
:1007E800010E116E1350C0097EEC03F0020E116E5B
:1007F8001350C0097EEC03F012000F6E9EA8FED7BE
:0C0808000FC0ADFF1200E77FF57FEE7F10
:107DE00000000000000000005F0000000700070026
:107DF000147F147F14242A7F2A1223130864623606
:107E0000495522500005030000001C22410000419A
:107E1000221C00082A1C2A0808083E0808005030C6
:107E2000000008080808080030300000201008048E
:107E3000023E5149453E00427F4000426151494661
:107E40002141454B311814127F1027454545393CD7
:107E50004A494930017109050336494949360649FD
:107E600049291E003636000000563600000008146E
:107E7000224114141414144122140800020151095F
:107E800006324979413E7E1111117E7F49494936BA
:107E90003E414141227F4141221C7F494949417F66
:107EA000090901013E414151327F0808087F004124
:107EB0007F41002040413F017F081422417F404024
:107EC00040407F0204027F7F0408107F3E41414111
:107ED0003E7F090909063E4151215E7F0919294665
:107EE000464949493101017F01013F4040403F1F60
:107EF0002040201F7F2018207F6314081463030490
:107F0000780403615149454300007F414102040860
:107F1000102041417F000004020102044040404023
:107F200040000102040020545454787F48444438EF
:107F30003844444420384444487F38545454180842
:107F40007E090102081454543C7F0804047800445C
:107F50007D40002040443D00007F10284400417FC8
:107F600040007C041804787C0804047838444444B5
:107F7000387C14141408081414187C7C08040408B1
:107F80004854545420043F4440203C4040207C1C32
:107F90002040201C3C4030403C44281028440C50D9
:107FA00050503C4464544C44000836410000007F6B
:107FB0000000004136080008082A1C08081C2A088E
:107FC000080800AA00080038383800000000000047
:107FD000000000000001000A006400E803102725EB
:107FE000642C25640D0A0020202020200A00414E28
:107FF000303A200A00414E333A200A00256400003E
:020000040030CA
:0E000000FF021900FFA580FF0FC00FE00F40A8
:00000001FF
