:040000002CEF00F0F1
:100008004982F2BAF2A422D0432A0A0E4318D8A48D
:1000180017D0000E436E442A3C0E4418D8A410D0C2
:10002800000E446E452A3C0E4518D8A409D0000E8F
:10003800456E462A180E4618D8A402D0000E466E01
:10004800000E416E010E406EF29AF2944992110030
:1000580052EF03F03D6E4350D8A408D03CC00CF0DA
:10006800300E0D6E3D50BDEC01F008D03CC015F0CF
:1000780043C016F0176A3D50C0EC00F03C040C6E0B
:100088002E0E0D6E3D50BDEC01F00A0E446016D0E8
:100098003C50FD0F0C6E300E0D6E3D50BDEC01F066
:1000A8003C50FE0F0C6E0A0E016E4450FFEC02F03D
:1000B800300F0D6E3D50BDEC01F009D03C50FD0FE6
:1000C800156E44C016F0176A3D50C0EC00F03C5065
:1000D800FC0F0C6E3A0E0D6E3D50BDEC01F00A0E91
:1000E800456016D03C50FA0F0C6E300E0D6E3D5028
:1000F800BDEC01F03C50FB0F0C6E0A0E016E455032
:10010800FFEC02F0300F0D6E3D50BDEC01F009D050
:100118003C50FA0F156E45C016F0176A3D50C0ECFA
:1001280000F03C50F90F0C6E3A0E0D6E3D50BDECD0
:1001380001F00A0E466016D03C50F70F0C6E300ED8
:100148000D6E3D50BDEC01F03C50F80F0C6E0A0EE0
:10015800016E4650FFEC02F0300F0D6E3D50BDECC5
:1001680001F012003C50F70F156E46C016F0176AE2
:100178003D50C0EC00F01200396E17AE15D015C016
:100188000CF02D0E0D6E3950BDEC01F0152A16C07D
:1001980001F017C002F0FF0E046E036814EC03F0C0
:1001A80001C016F002C017F0000E3B6E000E3A6E4A
:1001B80016501710D8A426D0300E196E3A4A3B2A8A
:1001C80021D03A50190FD96EDA6A16C001F017C05B
:1001D80002F0000E046E0A0E036EF6EC01F00150F8
:1001E800300FDF6E3A4A3B2A16C001F017C002F002
:1001F800000E046E0A0E036E7BEC01F001C016F0CF
:1002080002C017F017BE20D01750DBE11604D8A0A3
:100218001BD0D7D73A06D8A03B063A50190FD96E4B
:10022800DA6ADF50186E1850166E176A15C00CF08F
:1002380016C00DF03950BDEC01F0152A7F0E15647B
:1002480003D0392A000E156E3BBE12003B50E2E186
:100258003A04D8A01200DED78BEC02F027EC03F0AA
:10026800070E0C6E000E0D6E7F0E0E6E000E2EEC3D
:1002780002F0000E44EC03F0000E3F6E0A0E3E6ED4
:1002880047C048F0000E82B0010E476E4850D8A40F
:100298001CD04750D8A40ED018D0000E466E000EC1
:1002A800456E000E446E000E436EF28EF29E000EF6
:1002B800426E0AD04250000AD8B4EFD7010AD8B427
:1002C800F4D7030AD8B4F2D7422A100E3C6E040EB3
:1002D8002EEC00F03E06D8A03F063E503F10D8A4B2
:1002E800CFD7F28A000E416E010E406EC5D7000EC0
:1002F800066E04AE06D0036C041ED8B0042A010EA4
:10030800066E02AE06D0016C021ED8B0022A010E9B
:10031800061A000E086E000E076E03500410D8B4BB
:100328001CD0010E056E04D0D89003360436052A79
:1003380004AEFAD7D890073608360350015C04504B
:100348000258D8A005D00350015E0450025A078015
:10035800D89004320332052EEDD70650D8B404D015
:10036800076C081ED8B0082A07C001F008C002F0C0
:100378001200106EE00E0D24016E026AFF0E0222BA
:10038800000E046E050E036E14EC03F001C011F0AC
:1003980002C012F00C50050DF3CF0CF0000E146ED5
:1003A800000E136E0B0E1124F66E7E0E1220F76EE1
:1003B8000800F5500E6E0F6A0CC006F00EC007F06C
:1003C80010505DEC02F00C2A114A122A134A142A22
:1003D80014BEE8D7145005E1050E135CD8B012001E
:1003E800E1D71200000E066E02AE06D0016C021EA6
:1003F800D8B0022A010E066E04AE04D0036C041EA7
:10040800D8B0042A03500410D8B418D0010E056ED1
:1004180004D0D89003360436052A04AEFAD7035020
:10042800015C04500258D8A004D00350015E045067
:10043800025AD89004320332052EF1D70650D8B4A8
:1004480004D0016C021ED8B0022A01C001F002C01B
:1004580002F01200126E12C013F0146A1CD00DC004
:1004680015F0166A09D015C006F0000E076E135075
:100478005DEC02F0154A162A0E500F6E106A1550E0
:100488000F5C1050800A116E1650800A1158D8B0AF
:10049800EAD7134A142A0C500F6E106A13500F5CD7
:1004A8001050800A116E1450800A1158D8A01200FA
:1004B800D6D7086E400E066004D0000E0A6E010EF4
:1004C80003D0000E0A6E020E096E09C00BF0085028
:1004D80036EC03F00650AFEC02F00B50E7EC02F0FC
:1004E800000E936E0B04D8B48190020E0B18D8B48A
:1004F80081928196818400F0818800F007C083FF93
:10050800000E956E00F08198818081821200000EA5
:100518000F013B6F000E396F000E3A6F000E836EAD
:10052800000E816E000E826E000E956E000E936EA8
:10053800010E946EF29EF294F28AF1843C0ED76E0C
:10054800B00ED66ED58ED59CD59AD596D550F80BCB
:100558000109D56E1200056E400E05600CD0010E23
:10056800036E05504009CCEC02F0020E036E400EFB
:10057800CCEC02F01200010E036E7F0ECCEC02F000
:10058800020E036E0550C00F4009CCEC02F01200B9
:10059800046E0350E7EC02F0000E936E0304D8B427
:1005A8008190020E0318D8B481928196819400F04C
:1005B800818800F004C083FF000E956E00F08198DA
:1005C800818081821200026E9568000E936E02048B
:1005D800D8B48190020E0218D8B481928186819491
:1005E80000F0818800F083CF01F0819801BEF9D72F
:1005F800818081821200026E080E036E000E046E66
:10060800D89002340434046ED89002360150045C49
:10061800D8A002D00150045E032EF2D70450120075
:1006280001500302F3CF05F0F4CF06F001500402A5
:10063800F350062602500302F350062605C001F0C7
:1006480006C002F01200818A010E036E3F0ECCEC48
:1006580002F0020E036E3F0ECCEC02F0000E44ECEA
:1006680003F01200056E010E036E0550B809CCECBC
:1006780002F0020E036E0550B809CCEC02F012002D
:10068800056E010E036E0550C009CCEC02F0020E97
:10069800036E0550C009CCEC02F0120000EE40F0E9
:1006A800090EEE6AE806FDE149904992000EF86EDF
:0606B800000130EF01F02B
:107E0A0000000000000000005F00000007000700FB
:107E1A00147F147F14242A7F2A12FE2525251A3658
:107E2A00495522500005030000001C224100004170
:107E3A00221C00082A1C2A0808083E08080050309C
:107E4A000000080808080800303000002010080464
:107E5A00023E5149453E00427F4000426151494637
:107E6A002141454B311814127F1027454545393CAD
:107E7A004A494930017109050336494949360649D3
:107E8A0049291E0036360000005636000000081444
:107E9A002241141414141441221408000201510935
:107EAA0006324979413E7E1111117E7F4949493690
:107EBA003E414141227F4141221C7F494949417F3C
:107ECA00090901013E414151327F0808087F0041FA
:107EDA007F41002040413F017F081422417F4040FA
:107EEA0040407F0204027F7F0408107F3E414141E7
:107EFA003E7F090909063E4151215E7F091929463B
:107F0A00464949493101017F01013F4040403F1F35
:107F1A002040201F7F2018207F6314081463030465
:107F2A00780403615149454300007F414102040836
:107F3A00102041417F0000040201020440404040F9
:107F4A0040000102040020545454787F48444438C5
:107F5A003844444420384444487F38545454180818
:107F6A007E090102081454543C7F08040478004432
:107F7A007D40002040443D00007F10284400417F9E
:107F8A0040007C041804787C08040478384444448B
:107F9A00387C14141408081414187C7C0804040887
:107FAA004854545420043F4440203C4040207C1C08
:107FBA002040201C3C4030403C44281028440C50AF
:107FCA0050503C4464544C44000836410000007F41
:107FDA000000004136080008082A1C08081C2A0864
:107FEA00080800AA0008003838380000000000001D
:067FFA0000000000000081
:020000040030CA
:0E000000FF021900FFA580FF0FC00FE00F40A8
:00000001FF
