:040000000BEF00F012
:1000080009829EB29DA201D09E920992110075EFBD
:1000180000F053EC00F01E0E086E000E076E08503C
:10002800050DF3CF05F0F4CF06F005C001F0030E7F
:100038000116013ABD500118CF0B0118BD6E05C05D
:1000480001F006C002F002340232013202340232F8
:1000580001320150BE6E030E046EE80E036E03D02B
:100068000306D8A0040604BE05D00450F9E1030431
:10007800D8B0F6D70850D8B404D0640E0818D8A45D
:1000880007D00750D8A402D0010E01D0000E076E89
:100098000750D8B402D0082AC2D70806C0D7000E25
:1000A800946E000E0F013A6F000E826ED08EF28EA3
:1000B80094849E929D829F82BA84BA50FC0B020956
:1000C800BA6E7C0EBB6EFC0E4917BD50F00B0C09C6
:1000D800BD6E250EBE6EBD50CF0B2009BD6E94942B
:0C00E80012000990099200010DEF00F0D9
:020000040030CA
:0E000000FF021900FFA580FF0FC00FE00F40A8
:00000001FF
