:0400000032EF00F0EB
:100008002682F2BAF2A428D0F40ED76E240ED66E49
:10001800F294214A222A0A0E21182210D8A41CD0B0
:10002800000E226E000E216E1F4A202A3C0E1F1859
:100038002010D8A406D0000E206E000E1F6E1D4A98
:100048001E2A3C0E1D181E10D8A406D0000E1E6EC7
:10005800000E1D6E1B4A1C2A2692110049EF02F061
:10006800000E166E040E156E080E0C6E1BC001F005
:100078001CC002F0000E046E0A0E036E8CEC01F038
:100088000150300F0D6E1550F6EC00F0090E0C6E95
:100098001BC001F01CC002F0000E046E0A0E036EB5
:1000A800D6EC01F00150300F0D6E1550F6EC00F053
:1000B8000A0E0C6E3A0E0D6E1550F6EC00F00B0E93
:1000C8000C6E1DC001F01EC002F0000E046E0A0E78
:1000D800036E8CEC01F00150300F0D6E1550F6ECEC
:1000E80000F00C0E0C6E1DC001F01EC002F0000ED8
:1000F800046E0A0E036ED6EC01F00150300F0D6E3F
:100108001550F6EC00F00D0E0C6E3A0E0D6E1550F3
:10011800F6EC00F00E0E0C6E1FC001F020C002F0CD
:10012800000E046E0A0E036E8CEC01F00150300FC5
:100138000D6E1550F6EC00F00F0E0C6E1FC001F09E
:1001480020C002F0000E046E0A0E036ED6EC01F019
:100158000150300F0D6E1550F6EC00F012002FEC28
:1001680002F08DEC02F0070E0C6E000E0D6E7F0E85
:100178000E6E000E2FEC01F0000EAAEC02F0090E34
:10018800156E24C016F025C017F0020EB5EC01F06C
:1001980034EC00F02FEC02F0B8EC02F080A01FD095
:1001A8002350D8A404D0010E236ED58E18D0230472
:1001B800D8A404D0020E236ED59E11D0020E2318A7
:1001C800D8A40DD0000E236E000E226E000E216EF4
:1001D800000E206E000E1F6E02D0B8EC02F080A058
:1001E800DBD7FBD7106EE00E0D24016E026AFF0EFE
:1001F8000222000E046E050E036E7AEC02F001C0B6
:1002080011F002C012F00C50050DF3CF0CF0000EE7
:10021800146E000E136E14BE06D014501BE1050EAA
:10022800135CD8B01200010E1124F66E7E0E122057
:10023800F76E0800F5500E6E0F6A0CC006F00EC07F
:1002480007F010505EEC01F00C2A114A122A134AEA
:10025800142AE1D71200126E12C013F0146A1CD0CF
:100268000DC015F0166A09D015C006F0000E076E0D
:1002780013505EEC01F0154A162A0E500F6E106AE4
:1002880015500F5C1050800A116E1650800A1158D4
:10029800D8B0EAD7134A142A0C500F6E106A1350BC
:1002A8000F5C1050800A116E1450800A1158D8A0A3
:1002B8001200D6D7086E400E066004D0000E0A6EF3
:1002C800010E03D0000E0A6E020E096E09C00BF073
:1002D80008509CEC02F00650F7EC01F00B5062EC71
:1002E80002F0000E936E0B04D8B48190020E0B1826
:1002F800D8B481928196818400F0818800F007C08B
:1003080083FF000E956E00F0819881808182120033
:10031800000E066E000E056E03500410D8B41CD0F3
:10032800010E076E04D0D89003360436072A04AEAF
:10033800FAD7D890053606360350015C04500258A7
:10034800D8A005D00350015E0450025A0580D89009
:1003580004320332072EEDD705C001F006C002F0C3
:100368001200186E000E1A6E000E196E11D015507C
:1003780019240C6E16C0F6FF17C0F7FF0800F5CF5A
:100388000DF01850F6EC00F0164A172A194A1A2AE6
:1003980016C0F6FF17C0F7FF0800F5500A0AD8B4D0
:1003A8001200E5D703500410D8B418D0010E056E1A
:1003B80004D0D89003360436052A04AEFAD7035081
:1003C800015C04500258D8A004D00350015E0450C8
:1003D800025AD89004320332052EF1D701C001F039
:1003E80002C002F01200056E400E05600CD0010E2E
:1003F800036E0550400914EC02F0020E036E400E25
:1004080014EC02F01200010E036E7F0E14EC02F0E1
:10041800020E036E0550C00F400914EC02F01200E2
:10042800046E035062EC02F0000E936E0304D8B41D
:100438008190020E0318D8B481928196819400F0BD
:10044800818800F004C083FF000E956E00F081984B
:10045800818081821200000E836E000E826E000E73
:10046800806E8090000E956E000E946E000E926E57
:100478000F0EC16EA00EF26E000ED06E940ED56EE9
:10048800F40ED76E240ED66E1200760EF66E050E9A
:10049800F76E000EF86E0900F5CF24F00900F5CFCD
:1004A80025F000EE1BF0090EEE6AE806FDE1269045
:1004B8002692000EF86E0001B3EF00F0026E956808
:1004C800000E936E0204D8B48190020E0218D8B4BC
:1004D80081928186819400F0818800F083CF01F0B9
:1004E800819801BEF9D781808182120001500302F0
:1004F800F3CF05F0F4CF06F001500402F3500626BE
:1005080002500302F350062605C001F006C002F0AF
:100518001200818A010E036E3F0E14EC02F0020EE7
:10052800036E3F0E14EC02F0000EAAEC02F012006B
:10053800056E010E036E0550B80914EC02F0020EA8
:10054800036E0550B80914EC02F01200056E010E96
:10055800036E0550C00914EC02F0020E036E05503C
:10056800C00914EC02F0120034EC00F01200F57F20
:107E000000000000000000005F0000000700070005
:107E1000147F147F143C1A3E1A3C23130864623604
:107E2000495522500005030000001C22410000417A
:107E3000221C00082A1C2A0808083E0808005030A6
:107E4000000008080808080030300000201008046E
:107E5000023E5149453E00427F4000426151494641
:107E60002141454B311814127F1027454545393CB7
:107E70004A494930017109050336494949360649DD
:107E800049291E003636000000563600000008144E
:107E9000224114141414144122140800020151093F
:107EA00006324979413E7E1111117E7F494949369A
:107EB0003E414141227F4141221C7F494949417F46
:107EC000090901013E414151327F0808087F004104
:107ED0007F41002040413F017F081422417F404004
:107EE00040407F0204027F7F0408107F3E414141F1
:107EF0003E7F090909063E4151215E7F0919294645
:107F0000464949493101017F01013F4040403F1F3F
:107F10002040201F7F2018207F631408146303046F
:107F2000780403615149454300007F414102040840
:107F3000102041417F000004020102044040404003
:107F400040000102040020545454787F48444438CF
:107F50003844444420384444487F38545454180822
:107F60007E090102081454543C7F0804047800443C
:107F70007D40002040443D00007F10284400417FA8
:107F800040007C041804787C080404783844444495
:107F9000387C14141408081414187C7C0804040891
:107FA0004854545420043F4440203C4040207C1C12
:107FB0002040201C3C4030403C44281028440C50B9
:107FC00050503C4464544C44000836410000007F4B
:107FD0000000004136080008082A1C08081C2A086E
:107FE000080800AA00080038383800000000000027
:107FF000000000000068683A6D6D3A73730A000073
:020000040030CA
:0E000000FF021900FFA580FF0FC00FE00F40A8
:00000001FF
