:040000000FEF00F00E
:100008001F82F2BAF2A405D0F294000E1E6E010E01
:100018001D6E1F92110038EF01F0000E116E000ED8
:10002800106E000E136E000E126E12C006F010C095
:100038000CF011C00DF0070ED8900C360D36E82ED6
:10004800FBD70B0E0E6E7A0E0F6E0C500E260D504F
:100058000F2212500E2613500F220EC0F6FF0FC0AB
:10006800F7FF0800F5CF07F01050B0EC00F0124A87
:10007800132A13BEDAD7135004E1800E125CD8A0FD
:10008800D4D7104A112A11BECCD7115005E1080E59
:10009800105CD8B01200C5D71200DEEC00F0A3EC5B
:1000A80001F078EC01F0070E0C6E000E0D6E7F0E5D
:1000B8000E6E000E81EC00F0000E95EC01F011ECD4
:1000C80000F0F28ED58E1D041E10D8A4FCD7000EA9
:1000D8001E6E000E1D6ED59E070E0C6E000E0D6E68
:1000E8007F0E0E6E000E81EC00F0000E95EC01F014
:1000F800170E026E69EC01F0E6D7126E12C013F00B
:10010800146A1CD00DC015F0166A09D015C006F087
:10011800000E076E1350B0EC00F0154A162A0E5068
:100128000F6E106A15500F5C1050800A116E165031
:10013800800A1158D8B0EAD7134A142A0C500F6E07
:10014800106A13500F5C1050800A116E1450800A08
:100158001158D8A01200D6D7086E400E066004D0F9
:10016800000E0A6E010E03D0000E0A6E020E096E12
:1001780009C00BF0085087EC01F0065000EC01F0C4
:100188000B5051EC01F0000E936E0B04D8B4819023
:10019800020E0B18D8B481928196818400F0818870
:1001A80000F007C083FF000E956E00F081988180F3
:1001B80081821200000E0F013B6F000E396F000E96
:1001C8003A6F000E836E000E816E000E956E000E63
:1001D800936EC00E946EF29EF294F28AF184480EE9
:1001E800D76EE50ED66ED59ED59CD59AD596D550A8
:1001F800F80B0609D56E1200056E400E05600CD08E
:10020800010E036E055040091DEC01F0020E036E4D
:10021800400E1DEC01F01200010E036E7F0E1DEC66
:1002280001F0020E036E0550C00F40091DEC01F0ED
:100238001200046E035051EC01F0000E936E03049B
:10024800D8B48190020E0318D8B481928196819413
:1002580000F0818800F004C083FF000E956E00F066
:1002680081988180818212006A0EF66E030EF76E05
:10027800000EF86E00EE17F010EE06F00900F5CF4C
:10028800EEFFE550E150FAE11E6A1D6A1F901F92C9
:10029800000EF86E000151EF00F0026E9568000E36
:1002A800936E0204D8B48190020E0218D8B48192D9
:1002B8008186819400F0818800F083CF01F08198D5
:1002C80001BEF9D781808182120007D00250D96E11
:1002D800DA6ADF50AFEC01F0022A0250D96EDA6A0E
:1002E800DF50D8B41200F2D7818A010E036E3F0E98
:1002F8001DEC01F0020E036E3F0E1DEC01F0000E26
:1003080095EC01F01200056E010E036E0550B80958
:100318001DEC01F0020E036E0550B8091DEC01F04A
:100328001200056E010E036E0550C0091DEC01F0A8
:10033800020E036E0550C0091DEC01F01200AC9CC2
:10034800AC98AC84B896100EAF6EAC8AAC8AAB9CF5
:10035800AB8AAB8E1200016E9EA8FED701C0ADFF1E
:08036800120052696361726426
:107A0A0000808080C0F0F0F8FFFFFFF8FFFFF8FF6A
:107A1A00FFFFF8FFFFF8FFFFFFFFFFFFF8F0F0801E
:107A2A0080808000000000000000000000000000CC
:107A3A00000000000000000000000000000000003C
:107A4A00000000000000000000008080808080802C
:107A5A00800000000000000000000000000000009C
:107A6A00000000000000000000000000000000000C
:107A7A0000000000000000000000000000000000FC
:107A8A0000D9DBDBDFFFFFFFFFFFFFFFFFFFFFFF89
:107A9A00FFFFFFFFFFFFFFFFFCFFFFFCFFFFFFDF12
:107AAA00DBDBDB0000000000000000F0F0F8F81853
:107ABA00181838FCF8F8E000000E0E0EFEFEFFFF64
:107ACA0007070700F0FCFEFF0F0701010101030190
:107ADA008300000000000000000000000000000019
:107AEA00000000000000000000000000000000008C
:107AFA00000000000000000000000000000000007C
:107B0A00006DEDEDEFFFFFFFFFFFFFFFFFFFFFFF40
:107B1A00FFFFFFFFFFFFFFFFFFFFFFFFFFFFFFED7D
:107B2A00EDEDED0000000000000000FFFFFFFF0C7C
:107B3A000C0C0E0707030100007070707F7F3F3F37
:107B4A00383838000107070F0E1C0C0C0C0C0E07F6
:107B5A000700000000000000000000000000000014
:107B6A00000000000000000000000000808080800B
:107B7A0080C0C0C0C08000000000000000000000FB
:107B8A00000707070F3F3F7FFFFFFF7FFFFF7FFFD2
:107B9A00FFFF7FFFFF7FFFFFFFFFFFFF7F3F3F07E3
:107BAA0007070600000000000000000101010100B3
:107BBA00000000808080808080800000000080803B
:107BCA00C0C0C0C060E0C0C0000000F0F0F0F0002B
:107BDA000000000000FCFCFCFC00000000FEFEFEB1
:107BEA00FEC6C6C6C6C66303000000FFFFFFFF61EC
:107BFA00E1F1F9FFBF9F0F00000000000000000044
:107C0A000000000000000000030303000303000358
:107C1A0083E3E0E3636063337363E303000000001C
:107C2A00E0F0FC7C7CFCF8E0C00000000E070707CF
:107C3A0007FFFFFFFF030303030100F8FEFFFF83B3
:107C4A0001000000008080C1000000FFFFFFFF0765
:107C5A000707070707FFFFFFFF000000007F7F7F7E
:107C6A003F303030303018180000001F1F1F1F002F
:107C7A00000003070F0F0F060400000000000000B9
:107C8A0000000000000000000000000000007CFF6F
:107C9A00FFFFC18000000080C0C0E00000E0FCFFE0
:107CAA00FF3F1F1C1C1F1F7F7F7E784000000000C3
:107CBA00003F3F1F1F0000000000000003030303F2
:107CCA000706060603030303000000030303030079
:107CDA00000000000000000000000000000000009A
:107CEA00000000000000000000000000000000008A
:107CFA00000000000000000000000000000000007A
:107D0A000000000000000000000000000000000069
:107D1A000101010303030301010000000000000048
:107D2A000000000000000000000000000000000049
:107D3A000000000000000000000000000000000039
:107D4A0000000000000000000000000000C0201039
:107D5A0010101020000010F0100000000000002099
:107D6A00101090600000E0101010E00000201010C9
:107D7A0090600000E0101010E00000000000000019
:107D8A0000000000000000000000000000000000E9
:107D9A0000000000000000000000000000000000D9
:107DAA0000000000000000000000000000000000C9
:107DBA0000000000000000000000000000000000B9
:107DCA00000000000000000000000000000304089A
:107DDA00080808040000080F080000000000000C52
:107DEA000A0908080000070808080700000C0A0921
:107DFA000808000007080808070000000000000043
:107E0A0000000000000000005F00000007000700FB
:107E1A00147F147F14242A7F2A12FE2525251A3658
:107E2A00495522500005030000001C224100004170
:107E3A00221C00082A1C2A0808083E08080050309C
:107E4A000000080808080800303000002010080464
:107E5A00023E5149453E00427F4000426151494637
:107E6A002141454B311814127F1027454545393CAD
:107E7A004A494930017109050336494949360649D3
:107E8A0049291E0036360000005636000000081444
:107E9A002241141414141441221408000201510935
:107EAA0006324979413E7E1111117EFFFFFFFFFF25
:107EBA007F494949363E414141227F4141221C7F47
:107ECA00494949417F090901013E414151327F082F
:107EDA0008087F00417F41002040413F017F08148C
:107EEA0022417F404040407F0204027F7F04081005
:107EFA007F3E4141413E7F090909063E4151215ECB
:107F0A007F09192946464949493101017F01013F43
:107F1A004040403F1F2040201F7F2018207F6314CD
:107F2A000814630304780403615149454300007F40
:107F3A004141020408102041417F0000040201026D
:107F4A000440404040400001020400205454547848
:107F5A007F484444383844444420384444487F38AD
:107F6A0054545418087E090102081454543C7F08DA
:107F7A0004047800447D40002040443D00007F1006
:107F8A00284400417F40007C041804787C080404DB
:107F9A007838444444387C14141408081414187C9F
:107FAA007C080404084854545420043F4440203CAC
:107FBA004040207C1C2040201C3C4030403C44284F
:107FCA001028440C5050503C4464544C4400083629
:107FDA00410000007F0000004136080008082A1C02
:107FEA0008081C2A08080800AA00080038383800BF
:067FFA0000000000000081
:020000040030CA
:0E000000FF021900FFA580FF0FC00FE00F40A8
:00000001FF
